:020000040800F2
:1000000000280020DD1400082D1500082D1500081B
:100010002D1500082D1500082D1500080000000002
:10002000000000000000000000000000C1120008F5
:100030002D150008000000001D1200082D150008F5
:100040002D1500082D1500082D1500082D15000888
:100050002D1500082D1500082D0500085105000874
:100060007505000899050008BD0500082D15000854
:100070002D1500082D1500082D1500082D15000858
:100080002D1500082D1500082D1500082D15000848
:100090002D1500082D1500082D150008E105000894
:1000A0002D1500082D1500082D1500082D15000828
:1000B0002D1500082D1500082D1500081D0D000830
:1000C000A90E0008B50E0008411000084D100008E8
:1000D000D110000855110008691100087D110008B1
:1000E000910600082D150008000000002D150008DD
:1000F0002D1500082D1500082D1500082D150008D8
:100100002D1500082D1500082D1500082D150008C7
:100110002D1500082D1500082D1500082D150008B7
:100120002D1500082D1500082D1500082D150008A7
:1001300010B5054C237833B9044B13B10448AFF321
:1001400000800123237010BD080000200000000083
:100150007815000808B5034B1BB103490348AFF3FA
:10016000008008BD000000000C0000207815000889
:1001700080B483B000AF0346FB71FB790F2B54D8DA
:1001800001A252F823F000BFC9010008D7010008FE
:10019000E5010008F3010008010200080F02000851
:1001A0000F0200080F0200080F0200080F020008EB
:1001B0001D0200081D0200081D0200081D020008A3
:1001C0001D0200081D0200081A4B1B68194A43F063
:1001D0004003136029E0174B1B68164A43F0800365
:1001E000136022E0134B1B68124A43F480731360C0
:1001F0001BE0104B1B680F4A43F40073136014E0BC
:100200000C4B1B680B4A43F4806313600DE0094BF1
:100210001B68084A43F40003136006E0064B1B68A2
:10022000054A43F48073136000BF00BF0C37BD461E
:1002300080BC704700E100E004E100E080B483B0DE
:1002400000AF0346FB71FB790F2B54D801A252F883
:1002500023F000BF95020008A3020008B1020008C5
:10026000BF020008CD020008DB020008DB02000824
:10027000DB020008DB020008DB020008E9020008DC
:10028000E9020008E9020008E9020008E9020008A2
:10029000E90200081A4B1B68194A43F04003136037
:1002A00029E0174B1B68164A43F08003136022E0D5
:1002B000134B1B68124A43F4807313601BE0104B0E
:1002C0001B680F4A43F40073136014E00C4B1B6867
:1002D0000B4A43F4806313600DE0094B1B68084A26
:1002E00043F40003136006E0064B1B68054A43F421
:1002F0008073136000BF00BF0C37BD4680BC7047E1
:1003000080E100E084E100E080B584B000AF786077
:100310007B689B883B810123BB727B681B6807F16C
:1003200008021146184600F0D3FA7B689B799B08B7
:10033000FB737B689B7903F00303DBB29B00BB7309
:100340006D4AFB7B023352F82320BB7B0F2101FA5D
:1003500003F3DB4318466849FB7B0240023341F854
:1003600023207B681B68654A934240D07B681B68EA
:10037000634A934210D1604AFB7B023352F8232038
:10038000BB7B012101FA03F318465B49FB7B024367
:10039000023341F823202AE07B681B68594A9342C4
:1003A00010D1554AFB7B023352F82320BB7B02213C
:1003B00001FA03F318465049FB7B0243023341F82C
:1003C000232014E07B681B684F4A93420FD14A4AAE
:1003D000FB7B023352F82320BB7B032101FA03F39A
:1003E00018464549FB7B0243023341F82320474B23
:1003F0009B687A689279114601228A40D24311465D
:10040000424A0B409360414BDB687A68927911460F
:1004100001228A40D24311463C4A0B40D3607B689C
:100420001B7A022B1ED0022B33DC002B02D0012BB7
:100430000CD02EE0354B9B687A68927911460122E8
:100440008A401146314A0B43936022E02F4BDB6810
:100450007A689279114601228A4011462B4A0B4351
:10046000D36016E0294B9B687A6892791146012285
:100470008A401146254A0B439360244BDB687A6817
:100480009279114601228A401146204A0B43D360DB
:1004900000BF7B689B7919467B68DB681C4A42F881
:1004A00021307B685B7A012B10D1184B1B687A686E
:1004B0009279114601228A401146144A0B43136077
:1004C0007B689B791846FFF753FE10E00F4B1B68C3
:1004D0007A689279114601228A40D24311460B4A2A
:1004E0000B4013607B689B791846FFF7A7FE00BF9F
:1004F0001037BD4680BD00BF00000140000801402C
:10050000000C0140001001400014014000040140B3
:100510002400002080B582B000AF78607868FFF7D3
:10052000F3FE00BF0837BD4680BD000080B500AFB8
:10053000054B5B69044A43F001035361034B1B689D
:10054000984700BF80BD00BF000401402400002088
:1005500080B500AF054B5B69044A43F00203536169
:10056000034B5B68984700BF80BD00BF000401409B
:100570002400002080B500AF054B5B69044A43F0BE
:1005800004035361034B9B68984700BF80BD00BFC5
:10059000000401402400002080B500AF054B5B69DA
:1005A000044A43F008035361034BDB68984700BFDC
:1005B00080BD00BF000401402400002080B500AFD2
:1005C000054B5B69044A43F010035361034B1B69FD
:1005D000984700BF80BD00BF0004014024000020F8
:1005E00080B500AF284B5B6903F02003002B09D0D6
:1005F000254B5B69244A43F020035361234B5B691D
:1006000098473EE0204B5B6903F04003002B09D084
:100610001D4B5B691C4A43F0400353611B4B9B69B4
:1006200098472EE0184B5B6903F08003002B09D03C
:10063000154B5B69144A43F080035361134BDB692C
:1006400098471EE0104B5B6903F48073002B09D0C0
:100650000D4B5B690C4A43F4807353610B4B1B6A6F
:1006600098470EE0084B5B6903F40073002B08D039
:10067000054B5B69044A43F400735361034B5B6AA7
:10068000984700BF80BD00BF000401402400002047
:1006900080B500AF304B5B6903F48063002B09D059
:1006A0002D4B5B692C4A43F4806353612B4B9B6A4F
:1006B00098474EE0284B5B6903F40063002B09D098
:1006C000254B5B69244A43F400635361234BDB6A87
:1006D00098473EE0204B5B6903F48053002B09D020
:1006E0001D4B5B691C4A43F4805353611B4B1B6BCE
:1006F00098472EE0184B5B6903F40053002B09D098
:10070000154B5B69144A43F400535361134B5B6B05
:1007100098471EE0104B5B6903F48043002B09D01F
:100720000D4B5B690C4A43F4804353610B4B9B6B4D
:1007300098470EE0084B5B6903F40043002B08D098
:10074000054B5B69044A43F400435361034BDB6B85
:10075000984700BF80BD00BF000401402400002076
:1007600080B483B000AF0346FB80FB88B3F5004F35
:1007700000F0A580B3F5004F00F3A380B3F5804FE0
:1007800000F09B80B3F5804F00F39B80B3F5005FD2
:1007900000F09180B3F5005F00F39380B3F5805FC4
:1007A00000F08780B3F5805F00F38B80B3F5006FB6
:1007B0007DD0B3F5006F00F38480B3F5806F74D003
:1007C000B3F5806F7DDCB3F5007F6CD0B3F5007FAF
:1007D00077DCB3F5807F64D0B3F5807F71DC802B4C
:1007E0005DD0802B6DDC202B48DC002B69DD013BCC
:1007F0001F2B66D801A252F823F000BF830800081F
:1008000087080008C30800088B080008C308000810
:10081000C3080008C30800088F080008C3080008C0
:10082000C3080008C3080008C3080008C30800087C
:10083000C3080008C308000893080008C30800089C
:10084000C3080008C3080008C3080008C30800085C
:10085000C3080008C3080008C3080008C30800084C
:10086000C3080008C3080008C3080008C30800083C
:10087000C3080008C308000897080008402B0CD0E4
:100880001FE000231EE004231CE008231AE00C23D1
:1008900018E0102316E0142314E0182312E01C23A0
:1008A00010E000230EE004230CE008230AE00C23F0
:1008B00008E0102306E0142304E0182302E01C23C0
:1008C00000E0002318460C37BD4680BC704700BFCF
:1008D00080B584B000AF786039600023FB600023EE
:1008E000FB723B681B88FF2B01D87B6801E07B68AB
:1008F0000433FB603B681B881846FFF731FF034653
:10090000FB72FB681B68FA7A0F2101FA02F2D243EC
:100910001A40FB681A603B689B78072B78D801A2C5
:1009200052F823F0250A0008450900085909000873
:100930007B0900089F090008B7090008D5090008CD
:10094000F3090008FB681B68FA7A042101FA02F235
:100950001A43FB681A6066E0FB681B68FA7A082194
:1009600001FA02F21A43FB681A607B68DB683A6896
:1009700012881A437B68DA6055E0FB681B68FA7AD4
:10098000082101FA02F21A43FB681A607B68DB68EF
:100990003A681288D2431A407B68DA6043E0FB6809
:1009A0001B683A68D2781146FA7A01FA02F21A43C1
:1009B000FB681A6037E0FB681B683A68D27842F03F
:1009C0000402D2B21146FA7A01FA02F21A43FB6823
:1009D0001A6028E0FB681B683A68D27842F0080287
:1009E000D2B21146FA7A01FA02F21A43FB681A608F
:1009F00019E0FB681B683A68D27842F00C02D2B268
:100A00001146FA7A01FA02F21A43FB681A600AE008
:100A1000FB681B68FA7A042101FA02F21A43FB68A8
:100A20001A6000E000BF00BF1037BD4680BD00BFA8
:100A300080B483B000AF78600B46FB70FB78202B4E
:100A400000F2668101A252F823F000BFD10A00082B
:100A5000E70A0008FD0A0008130B0008270B00082E
:100A60003B0B00084F0B0008630B0008770B0008D6
:100A70008B0B00089F0B0008B50B0008CB0B000880
:100A8000E10B0008F70B00080D0C0008230C000810
:100A9000390C00084D0C0008610C0008750C0008AA
:100AA000890C00089D0C00089D0C0008B10C000882
:100AB000C70C0008DB0C0008750C0008890C000846
:100AC000890C00089D0C00089D0C0008EF0C000824
:100AD0007B685B6803F48073B3F5807F0CBF0123F0
:100AE0000023DBB215E17B685B6803F40073B3F5A8
:100AF000007F0CBF01230023DBB20AE17B685B6847
:100B000003F48063B3F5806F0CBF01230023DBB2D5
:100B1000FFE07B685B6903F00103012B0CBF01233D
:100B20000023DBB2F5E07B685B6903F00203022B74
:100B30000CBF01230023DBB2EBE07B685B6903F0B1
:100B40000403042B0CBF01230023DBB2E1E07B682C
:100B50005B6903F00803082B0CBF01230023DBB201
:100B6000D7E07B685B6903F01003102B0CBF0123F7
:100B70000023DBB2CDE07B685B6903F04003402BD0
:100B80000CBF01230023DBB2C3E07B685B6903F089
:100B90008003802B0CBF01230023DBB2B9E07B680C
:100BA0005B6903F48073B3F5807F0CBF01230023DE
:100BB000DBB2AEE07B685B6903F40073B3F5007FE2
:100BC0000CBF01230023DBB2A3E07B685B6903F465
:100BD0008063B3F5806F0CBF01230023DBB298E084
:100BE0007B685B6903F40063B3F5006F0CBF0123FE
:100BF0000023DBB28DE07B685B6903F48053B3F5BF
:100C0000805F0CBF01230023DBB282E07B685B695D
:100C100003F48043B3F5804F0CBF01230023DBB204
:100C200077E07B685B6903F40043B3F5004F0CBFCA
:100C300001230023DBB26CE07B689B6903F00103B6
:100C4000012B0CBF01230023DBB262E07B689B69B0
:100C500003F00203022B0CBF01230023DBB258E098
:100C60007B689B6903F00403042B0CBF0123002362
:100C7000DBB24EE07B685B6903F00203022B0CBF22
:100C800001230023DBB244E07B685B6903F040038F
:100C9000402B0CBF01230023DBB23AE07B685B6989
:100CA00003F08003802B0CBF01230023DBB230E074
:100CB0007B685B6903F48063B3F5806F0CBF01232D
:100CC0000023DBB225E07B685B6903F01003102B87
:100CD0000CBF01230023DBB21BE07B685B6903F0E0
:100CE0000103012B0CBF01230023DBB211E07B6861
:100CF0005B6903F08003802B07D17B685B6903F09D
:100D00000403042B01D1012300E00023DBB200E047
:100D1000002318460C37BD4680BC704780B500AF35
:100D200011215F48FFF784FE0346002B56D11221A4
:100D30005B48FFF77DFE0346012B4FD11421584835
:100D4000FFF776FE0346012B05D1564B5B69002069
:100D500098470123A1E016215148FFF769FE034699
:100D6000012B13D113214E48FFF762FE0346012BDE
:100D70000CD102214A48FFF75BFE0346012B05D147
:100D8000484B5B6901209847012386E015214448C0
:100D9000FFF74EFE0346012B13D113214048FFF706
:100DA00047FE0346002B0CD102213D48FFF740FED1
:100DB0000346012B05D13B4B5B6902209847012379
:100DC0006BE019213648FFF733FE0346012B05D1AE
:100DD000344B5B690320984701235EE011213048C2
:100DE000FFF726FE0346012B56D112212C48FFF7B0
:100DF0001FFE0346012B4FD11A212948FFF718FE89
:100E00000346012B05D1274B5B690420984701233A
:100E100043E01B212248FFF70BFE0346012B05D1BF
:100E2000204B5B6905209847012336E01E211C48B2
:100E3000FFF7FEFD0346012B13D113211848FFF7DE
:100E4000F7FD0346012B0CD102211548FFF7F0FDF9
:100E50000346012B05D1134B5B69062098470123FC
:100E60001BE008210E48FFF7E3FD0346012B13D1D9
:100E700013210B48FFF7DCFD0346002B0CD10221A8
:100E80000748FFF7D5FD0346012B05D1054B5B69EC
:100E900007209847012300E00023184680BD00BFCB
:100EA000005400406000002080B400AF00BFBD4689
:100EB00080BC704780B500AF11215F48FFF7B8FDD7
:100EC0000346002B56D112215B48FFF7B1FD0346C4
:100ED000012B4FD114215848FFF7AAFD0346012BDF
:100EE00005D1564BDB6A002098470123A1E016216B
:100EF0005148FFF79DFD0346012B13D113214E48A6
:100F0000FFF796FD0346012B0CD102214A48FFF75B
:100F10008FFD0346012B05D1484BDB6A0120984722
:100F2000012386E015214448FFF782FD0346012B8B
:100F300013D113214048FFF77BFD0346002B0CD152
:100F400002213D48FFF774FD0346012B05D13B4BC1
:100F5000DB6A0220984701236BE019213648FFF72E
:100F600067FD0346012B05D1344BDB6A032098470C
:100F700001235EE011213048FFF75AFD0346012BA3
:100F800056D112212C48FFF753FD0346012B4FD1B8
:100F90001A212948FFF74CFD0346012B05D1274BA9
:100FA000DB6A04209847012343E01B212248FFF716
:100FB0003FFD0346012B05D1204BDB6A05209847F6
:100FC000012336E01E211C48FFF732FD0346012BAA
:100FD00013D113211848FFF72BFD0346012B0CD129
:100FE00002211548FFF724FD0346012B05D1134BC1
:100FF000DB6A0620984701231BE008210E48FFF713
:1010000017FD0346012B13D113210B48FFF710FDE9
:101010000346002B0CD102210748FFF709FD0346C8
:10102000012B05D1054BDB6A07209847012300E01F
:101030000023184680BD00BF00580040600000201B
:1010400080B400AF00BFBD4680BC704780B582B0A1
:1010500000AF00233B711C4B9B6803F00103DAB225
:101060003B7962F300033B71174B9B685B0803F00D
:101070000103DAB23B7962F341033B71124B9B6887
:101080001B0903F00103DAB23B7962F304133B71ED
:101090000D4B9B685B0903F00103DAB23B7962F305
:1010A00045133B71084B9B689B0903F00103DAB2BF
:1010B0003B7962F386133B71044B1B69387998477F
:1010C00000BF0837BD4680BD0030014090000020C1
:1010D00080B582B000AF00233B711C4B9B6803F0CE
:1010E0000103DAB23B7962F300033B71174B9B6853
:1010F0005B0803F00103DAB23B7962F341033B7111
:10110000124B9B681B0903F00103DAB23B7962F3CF
:1011100004133B710D4B9B685B0903F00103DAB2CA
:101120003B7962F345133B71084B9B689B0903F0C5
:101130000103DAB23B7962F386133B71044B5B6ABD
:101140003879984700BF0837BD4680BD0038004059
:101150009000002080B500AF024B1B69984700BF8C
:1011600080BD00BFB800002080B500AF024B5B6AB5
:10117000984700BF80BD00BFB800002080B500AF19
:10118000024B9B6B984700BF80BD00BFB80000209A
:1011900080B485B000AFF860B9607A603B60FA68EF
:1011A000BB681A447B681A443B68134418461437DA
:1011B000BD4680BC704780B485B000AFF860B960B0
:1011C0007A603B60FA68BB681A447B681A443B68E3
:1011D0001A44BB69134418461437BD4680BC704797
:1011E00080B400AF0A4B1B78012B06D1084B0022BC
:1011F0001A70084B01221A7005E0054B01221A7083
:10120000054B01221A7000BFBD4680BC704700BF6D
:1012100004000020F4000020F500002080B400AF9E
:1012200000BFBD4680BC704780B485B000AF786019
:101230007B6818331B68023B1B78FB60FB68042B40
:1012400035D801A252F823F05D1200086912000897
:101250007B1200088D120008A1120008EFF3148021
:1012600020F0010080F314887B681A687B680433DF
:101270001B681A447B681A601AE07B681A687B68EE
:1012800004331B68D21A7B681A6011E07B681B6804
:101290007A680432126803FB02F27B681A6007E086
:1012A000064B5B68054A43F08053536000E000BF83
:1012B00000BF1437BD4680BC704700BF00ED00E0A2
:1012C0001EF0040F0CBFEFF30880EFF30980FFF767
:1012D000ABBF00BF80B489B000AFF860B9601346FF
:1012E000FB71F861B96100237B61FB79032B0ED0A0
:1012F000032B10DC012B02D0022B04D00BE0F86989
:10130000B96901DF08E0F869B96902DF04E0F8694A
:10131000B96903DF00E000BF03467B617B691846C3
:101320002437BD4680BC704780B588B002AF2E4BD5
:101330001B68A3F500737B617B69083B3B613B69DC
:10134000643BFB60FB68083BBB60BB68643B7B6045
:10135000264B1B78012B20D1244B00221A703B69AD
:10136000184680F30988EFF3148040F0020080F300
:101370001488EFF3148040F0010080F314880423F4
:10138000032202210120FFF703FF00DFEFF31480A7
:1013900020F0020080F31488DAE7154B1B78012B4C
:1013A000D6D1134B00221A70BB68184680F3098807
:1013B000EFF3148040F0020080F31488EFF3148000
:1013C00040F0010080F314880523009304230322D6
:1013D00002210120FFF7EFFE00DFEFF3148020F081
:1013E000020080F31488B3E700000020F40000201E
:1013F000F500002080B400AF0A4B9B69094A43F016
:1014000004039361074B9B69064A43F00803936109
:10141000044B9B69034A43F00103936100BFBD463F
:1014200080BC70470010024080B588B000AF184AF9
:1014300007F1100392E8030083E8030000233B76E2
:1014400001237B76134BFB6107F110031846FFF76E
:1014500061F84FF40053BB810423BB730223FB7379
:1014600007F10C0319460C48FFF732FA4FF480439A
:10147000BB810423BB730223FB7307F10C031946E2
:101480000548FFF725FA00BF2037BD4680BD00BFE5
:1014900090150008E11100080008014080B582B0F5
:1014A00000AF00237B60FFF7A5FFFFF7BDFF012220
:1014B00002210420FFF70EFF78600222022104209F
:1014C000FFF708FF7860032202210420FFF702FFE4
:1014D000786004DFFFF728FF00BFFDE70D48854671
:1014E000AFF300800C480D490D4A002302E0D458A8
:1014F000C4500433C4188C42F9D30A4A0A4C00235E
:1015000001E013600432A242FBD300F011F8FFF7B0
:10151000C5FFFEE700280020000000200800002092
:10152000A015000808000020F8000020FEE70000D9
:1015300070B500260C4D0D4C641BA410A64209D1B9
:1015400000F01AF800260A4D0A4C641BA410A642AB
:1015500005D170BD55F8043B98470136EEE755F8C4
:10156000043B98470136F2E79815000898150008E3
:10157000981500089C150008F8B500BFF8BC08BC19
:101580009E467047F8B500BFF8BC08BC9E46704741
:08159000000C014000020917E4
:0415980055010008F1
:04159C003101000811
:0815A0000028002001000000FA
:04000005080014DDFE
:00000001FF
